:100000000C9462000C948A000C948A000C948A0070
:100010000C948A000C948A000C948A000C948A0038
:100020000C948A000C948A000C948A000C948A0028
:100030000C948A000C948A000C948A000C948A0018
:100040000C9497050C948A000C9407060C94E10517
:100050000C948A000C948A000C948A000C948A00F8
:100060000C948A000C948A000000000024002700F1
:100070002A0000000000250028002B0000000000DE
:1000800023002600290004040404040404040202DA
:100090000202020203030303030301020408102007
:1000A0004080010204081020010204081020000012
:1000B0000008000201000003040700000000000027
:1000C0000000390611241FBECFEFD8E0DEBFCDBF40
:1000D00011E0A0E0B1E0ECEDF8E102C005900D9276
:1000E000A038B107D9F722E0A0E8B1E001C01D9225
:1000F000A335B207E1F710E0C2E6D0E004C02197D3
:10010000FE010E94610CC136D107C9F70E94830627
:100110000C946C0C0C940000833081F028F4813036
:1001200099F08230A1F008958730A9F08830B9F0B5
:100130008430D1F4809180008F7D03C08091800055
:100140008F7780938000089584B58F7702C084B53F
:100150008F7D84BD08958091B0008F7703C080911A
:10016000B0008F7D8093B0000895CF93DF93EAEBCA
:10017000F0E08491E6EAF0E0D491E2E9F0E0C491A5
:10018000CC2391F081110E948C00EC2FF0E0EE0F57
:10019000FF1FE458FF4FA591B491EC91ED2381E04E
:1001A00090E021F480E002C080E090E0DF91CF9108
:1001B00008951F93CF93DF93282F30E0F901E25584
:1001C000FF4F8491F901E656FF4FD491F901EA57A8
:1001D000FF4FC491CC23C1F0162F81110E948C00D7
:1001E000EC2FF0E0EE0FFF1FEE58FF4FA591B491FA
:1001F0009FB7F894111104C08C91D095D82302C0F8
:10020000EC91DE2BDC939FBFDF91CF911F9108957E
:10021000CF93DF9390E0FC01E656FF4F2491FC0161
:10022000EA57FF4F8491882361F190E0880F991F6E
:10023000FC01E859FF4FC591D491FC01EE58FF4FE6
:10024000A591B491611109C09FB7F8948881209558
:1002500082238883EC912E230BC0623061F49FB718
:10026000F8948881322F309583238883EC912E2B4C
:100270002C939FBF06C08FB7F894E8812E2B28835C
:100280008FBFDF91CF9108958E3008F08E50877028
:10029000806480937C0080917A00806480937A00EF
:1002A00080917A0086FDFCCF8091780020917900C2
:1002B00090E0922B08953FB7F89480919A01909125
:1002C0009B01A0919C01B0919D0126B5A89B05C002
:1002D0002F3F19F00196A11DB11D3FBFBA2FA92FC5
:1002E000982F8827820F911DA11DB11DBC01CD0142
:1002F00042E0660F771F881F991F4A95D1F708952E
:100300008F929F92AF92BF92CF92DF92EF92FF9225
:100310006B017C010E945B014B015C01C114D104A3
:10032000E104F104F1F00E945B01DC01CB018819CA
:100330009909AA09BB09883E9340A105B10570F34C
:1003400021E0C21AD108E108F10888EE880E83E0A6
:10035000981EA11CB11CC114D104E104F10419F7C9
:10036000DDCFFF90EF90DF90CF90BF90AF909F9048
:100370008F900895CF92DF92EF92FF920F931F9389
:10038000CF93DF936C017A018B01C0E0D0E0CE15F2
:10039000DF0581F0D8016D918D01D601ED91FC91C1
:1003A0000190F081E02DC6010995892B11F021966D
:1003B000EECF7E01C701DF91CF911F910F91FF908A
:1003C000EF90DF90CF900895FC01538D448D252F41
:1003D00030E0842F90E0821B930B541710F0CF96DF
:1003E000089501970895FC01918D828D981761F011
:1003F000828DDF01A80FB11D5D968C91928D9F5F5C
:100400009F73928F90E008958FEF9FEF0895FC0106
:10041000918D828D981731F0828DE80FF11D858DB9
:1004200090E008958FEF9FEF0895FC01918D228D4C
:10043000892F90E0805C9F4F821B91098F739927D1
:1004400008958EE991E00E94150221E0892B09F4BC
:1004500020E0822F0895FC01848DDF01A80FB11DDB
:10046000A35ABF4F2C91848D90E001968F739927EA
:10047000848FA689B7892C93A089B1898C918370C8
:1004800080648C93938D848D981306C00288F389C1
:10049000E02D80818F7D80830895EF92FF920F93EE
:1004A0001F93CF93DF93EC0181E0888F9B8D8C8D20
:1004B000981305C0E889F989808185FD26C0F62E4C
:1004C0000B8D10E00F5F1F4F0F731127E02E8C8DE7
:1004D000E8120CC00FB607FCFACFE889F9898081D1
:1004E00085FFF5CFCE010E942B02F1CF8B8DFE014F
:1004F000E80FF11DE35AFF4FF0829FB7F8940B8F7E
:10050000EA89FB89808180620AC09FB7F894EE89EE
:10051000FF896083E889F9898081837080648083A2
:100520009FBF81E090E0DF91CF911F910F91FF90ED
:10053000EF900895CF93DF93EC01888D8823C9F065
:10054000EA89FB89808185FD05C0A889B9898C91DC
:1005500086FD0FC00FB607FCF5CF808185FFF2CF77
:10056000A889B9898C9185FFEDCFCE010E942B021D
:10057000E7CFDF91CF91089580E090E0892B29F0BB
:100580000E94210281110C9400000895CF93DF9303
:10059000EC0160E08E810E94D90061E08E810E94B2
:1005A000D90060E08E810E94D9008BE891E001972C
:1005B000F1F7DF91CF910895CF92DF92EF92FF9202
:1005C0000F931F93CF93DF936C017C0187E0E80EBC
:1005D000F11CC0E0D0E0062F10E0B8010C2E02C0E4
:1005E000759567950A94E2F76170F70181917F0133
:1005F0000E94D9002196C430D10579F7C601DF9158
:10060000CF911F910F91FF90EF90DF90CF900C94BE
:10061000C602CF92DF92EF92FF920F931F93CF9378
:10062000DF93EC01F62E642F8C810E94D9008D811E
:100630008F3F19F060E00E94D9008F850F2D10E0E8
:1006400084FF25C06E0187E0C80ED11CE12CF12C7F
:10065000B8010E2C02C0759567950A94E2F7617097
:10066000F60181916F010E94D900FFEFEF1AFF0A96
:1006700088E0E816F10461F7CE01DF91CF911F9178
:100680000F91FF90EF90DF90CF900C94C602B801CD
:1006900084E0759567958A95E1F7CE010E94DC02AA
:1006A0006F2DCE01DF91CF911F910F91FF90EF90B1
:1006B000DF90CF900C94DC0240E0682F8BE392E057
:1006C0000C94090381E00E945C038BE39FE1019796
:1006D000F1F70895CF93DF93823028F090914A028A
:1006E000986090934A0280934E0210924F0280E4E9
:1006F0008093500280E18093510280E58093520202
:1007000061E080913F020E940801809140028F3F8A
:1007100019F061E00E94080161E0809141020E94AD
:100720000801CBE3D2E09E012B53324080914A0274
:1007300084FD03C084E090E002C088E090E0219650
:10074000281739072CF461E08E810E940801EBCF55
:100750008BE39DE00197F1F760E080913F020E94FA
:10076000D90060E0809141020E94D900809140024E
:100770008F3F19F060E00E94D90080914A0284FD09
:1007800020C063E08BE392E00E94DC02CBE4D6E47D
:10079000CE010197F1F763E08BE392E00E94DC0267
:1007A0002197F1F763E08BE392E00E94DC0283E59E
:1007B00092E00197F1F762E08BE392E00E94DC02A5
:1007C00015C080620E945C038BE496E40197F1F708
:1007D00080914A0280620E945C0383E592E0019767
:1007E000F1F780914A0280620E945C0380914A0284
:1007F00080620E945C0384E080934B028CE00E9444
:100800005C030E94620382E080934C0286E0DF91E9
:10081000CF910C945C03643008F063E090914E0239
:10082000691710F06FEF690FE62FF0E0E55CFD4F00
:100830009489890F80680C945C0341E00E9409034D
:1008400081E090E00895089580E090E00895CF92CF
:10085000DF92EF92FF920F931F93CF93DF93C4E643
:10086000D0E0C12CD12C76010BE811E08EE00E9483
:100870004401092E000CAA0BBB0BC80ED91EEA1EA0
:10088000FB1EC8010197F1F7219781F7C701B60157
:1008900024E630E040E050E00E94C709CA01B901F7
:1008A000DF91CF911F910F91FF90EF90DF90CF904C
:1008B00008950E94670C6115710579F0FB010190A4
:1008C0000020E9F73197AF01461B570BDC01ED9192
:1008D000FC910280F381E02D099480E090E008957E
:1008E0008F929F92AF92BF92EF92FF920F931F93BE
:1008F000CF93DF93CDB7DEB7A1970FB6F894DEBFE5
:100900000FBECDBF7C01FA01CB0119A2223008F441
:100910002AE08E010F5D1F4F822E912CA12CB12C4D
:10092000BF01A50194010E94E609F901CA01015025
:1009300011096A3014F4605D01C0695CD8016C93E0
:10094000232B242B252B61F7B801C7010E945B04E0
:10095000A1960FB6F894DEBF0FBECDBFDF91CF9149
:100960001F910F91FF90EF90BF90AF909F908F904D
:1009700008958F929F92AF92BF92CF92DF92EF92A3
:10098000FF920F931F93CF93DF936B017C01142F82
:100990009B01AC010E94550C882319F06EE171E0B7
:1009A00027C046015701E894B7F82FEF3FEF4FE714
:1009B0005FE7C501B4010E94550C81110DC02FEFF6
:1009C0003FEF4FE75FE7C501B4010E94840A1816A4
:1009D0001CF462E271E00CC02FEF3FEF4FE75FE4E1
:1009E000C701B6010E94E30B181694F466E271E0A9
:1009F0008BE392E0DF91CF911F910F91FF90EF90E9
:100A0000DF90CF90BF90AF909F908F900C945B043D
:100A10002FEF3FEF4FE75FECC701B6010E94840A5A
:100A200087FDE4CF20E030E0A901C701B6010E94B4
:100A3000840A87FF0DC041E06DE28BE392E00E94E3
:100A40000903F7FAF094F7F8F094C1E0D0E002C09F
:100A5000C0E0D0E000E060E070E080E09FE31017CD
:100A600041F020E030E040E251E40E94890A0F5F4B
:100A7000F6CFA70196010E94180A6B017C010E9423
:100A8000020B4B015C012AE0AB01BC018BE392E05D
:100A90000E947004C80FD91F1123C9F1C501B40108
:100AA0000E94310B9B01AC01C701B6010E94170ADD
:100AB0006B017C0141E06EE28BE392E00E9409034E
:100AC000219620E030E040E251E4C701B6010E94E7
:100AD000E80B4B015C010E94020B6B01E12CF12C35
:100AE0002AE0B701A6018BE392E00E947004C80FD0
:100AF000D91FC701B6010E94310B9B01AC01C50192
:100B0000B4010E94170A6B017C011150D1F6CE018D
:100B1000DF91CF911F910F91FF90EF90DF90CF90D9
:100B2000BF90AF909F908F9008950C945B041F929C
:100B30000F920FB60F9211242F933F938F939F9391
:100B4000AF93BF938091960190919701A0919801E6
:100B5000B09199013091950123E0230F2D3720F4B6
:100B60000196A11DB11D05C026E8230F0296A11D07
:100B7000B11D209395018093960190939701A093C6
:100B80009801B093990180919A0190919B01A09155
:100B90009C01B0919D010196A11DB11D80939A0108
:100BA00090939B01A0939C01B0939D01BF91AF9145
:100BB0009F918F913F912F910F900FBE0F901F909B
:100BC00018951F920F920FB60F9211242F933F93F7
:100BD0004F935F936F937F938F939F93AF93BF9345
:100BE000EF93FF938EE991E00E942B02FF91EF912A
:100BF000BF91AF919F918F917F916F915F914F9135
:100C00003F912F910F900FBE0F901F9018951F923C
:100C10000F920FB60F9211242F938F939F93EF9300
:100C2000FF93E091AE01F091AF018081E091B401BA
:100C3000F091B50182FD12C090818091B7018F5F64
:100C40008F732091B801821751F0E091B701F0E065
:100C5000E256FE4F958F8093B70101C08081FF91CE
:100C6000EF919F918F912F910F900FBE0F901F903A
:100C70001895EEE9F1E01382128288EE93E0A0E08D
:100C8000B0E084839583A683B78384E091E0918369
:100C9000808385EC90E09587848784EC90E097874B
:100CA000868780EC90E0918B808B81EC90E0938B39
:100CB000828B82EC90E0958B848B86EC90E0978B16
:100CC000868B118E128E138E148EEBE3F2E013825C
:100CD000128286E191E09183808385E0848386E0BF
:100CE000858387E0868388E0878389E080878AE040
:100CF00081878BE082871386148615861686178671
:100D000081E00C946A03CF93DF9300D000D000D031
:100D1000CDB7DEB7789484B5826084BD84B5816038
:100D200084BD85B5826085BD85B5816085BD8091B6
:100D30006E00816080936E0010928100809181002E
:100D40008260809381008091810081608093810026
:100D5000809180008160809380008091B1008460E8
:100D60008093B1008091B00081608093B000809149
:100D70007A00846080937A0080917A008260809308
:100D80007A0080917A00816080937A0080917A0065
:100D9000806880937A001092C100E091AE01F091DA
:100DA000AF0182E08083E091AA01F091AB01108253
:100DB000E091AC01F091AD0187E680831092B6011D
:100DC000E091B201F091B30186E08083E091B0013F
:100DD000F091B101808180618083E091B001F09158
:100DE000B101808188608083E091B001F091B10110
:100DF000808180688083E091B001F091B1018081B1
:100E00008F7D808382E00E946A0362E08CE00E9412
:100E1000080161E083E00E94080160E080E00E9438
:100E20000B046AE271E08BE392E00E94950561E0B9
:100E300080E00E940B046BE371E08BE392E00E9480
:100E4000950560ED77E080E090E00E9480010E94CF
:100E5000620360E080E00E940B046BE471E08BE3CE
:100E600092E00E94950588E10E945C030E94B50013
:100E7000892B29F162E370E080E090E00E9480011C
:100E80000E94B500892BD9F062E370E080E090E029
:100E90000E9480010E94B500892B89F062E370E016
:100EA00080E090E00E9480010E94B500892B39F01B
:100EB00062E370E080E090E00E948001D4CF209156
:100EC000800129832A30E8F40E94270400918101DF
:100ED000109182012091830130918401DC01CB01CA
:100EE000800F911FA21FB31F8093810190938201F5
:100EF000A0938301B093840139813F5F30938001D7
:100F0000DECF609181017091820180918301909187
:100F100084012AE030E040E050E00E94E60920939E
:100F200081013093820140938301509384016CE6E8
:100F300071E08EE991E00E94950540918101509108
:100F4000820160918301709184012AE08EE991E031
:100F50000E94700462E771E08EE991E00E945B04F8
:100F60000BE811E081EB282E80E0382E8FB7F89443
:100F7000C0909601D0909701E0909801F09099016F
:100F80008FBFC0929101D0929201E0929301F092B2
:100F9000940180918D0190918E01A0918F01B0916B
:100FA0009001A7019601281B390B4A0B5B0B298383
:100FB0003A834B835C832093890130938A01409369
:100FC0008B0150938C010E94270420918101309164
:100FD0008201621B730B072E000C880B990B0E9479
:100FE000330B2AE137E64CE950E40E94E80B20E09D
:100FF00030E044E852E40E94890A2B013C0144E6B7
:1010000050E05E834D83812C912C54018FE00E942F
:101010004401092E000CAA0BBB0B880E991EAA1EB8
:10102000BB1EC8010197F1F78D819E8101979E83B8
:101030008D83892B59F7C501B40124E630E040E0E7
:1010400050E00E94C709CA01B9010E94330B2AE08F
:1010500038E240EA5BE30E94E80B20E030E048EA37
:1010600051E40E94E80B6B017C01A30192010E94F4
:10107000E80B4B015C0169817A818B819C810E9424
:10108000330B20E030E04AE754E40E94890AA501CE
:1010900094010E94E80B20E030E041E655E40E9414
:1010A000890A9B01AC016091850170918601809154
:1010B0008701909188010E94180A609385017093BE
:1010C00086018093870190938801C701B6010E9431
:1010D000020B698370E080E090E00E94330B9B017B
:1010E000AC01C701B6010E94170A6B017C010E9486
:1010F000620360E080E00E940B049981492F50E078
:1011000060E070E02AE08BE392E00E94700465E703
:1011100071E08BE392E00E94950520E030E040E230
:1011200051E4C701B6010E94E80B0E94020B462F52
:1011300050E060E070E02AE08BE392E00E947004EF
:1011400067E771E08BE392E00E94950561E080E043
:101150000E940B0420E030E0A901C301B2010E940B
:10116000E30B181624F0C301B201905802C0C3016A
:10117000B20142E00E94B90469E771E08BE392E0BA
:101180000E949505C501B4010E94FB0A6B017C0118
:10119000C501B4010E94020B70E080E090E00E9463
:1011A000330B9B01AC01C501B4010E94170A20E07A
:1011B00030E040E251E40E94E80B0E94020B698398
:1011C00060E089E00E940B040D2C000CEE08FF0883
:1011D000F7FE0FC041E06DE28BE392E00E9409034D
:1011E00044275527BA014C195D096E097F092AE089
:1011F00003C02AE0B701A6018BE392E00E947004CD
:1012000065E771E08BE392E00E949505A9814A2F82
:1012100050E060E070E02AE08BE392E00E9470040E
:101220006BE771E08BE392E00E94950561E089E055
:101230000E940B0460918501709186018091870165
:101240009091880142E00E94B9046DE771E08BE360
:1012500092E00E94950581E10E9444012FEF30E069
:10126000DC010E945A0C2FEF33E040E050E00E9476
:10127000C70969017A01590157FF0EC06DE28EE975
:1012800091E00E944D0244275527BA014C195D098F
:101290006E097F092AE003C02AE0B701A6018EE9A2
:1012A00091E00E94700462E771E08EE991E00E9493
:1012B0005B0468EC70E080E090E00E94800161E0F7
:1012C00083E00E940801A114B10411F460E005C09C
:1012D000BFEFAB16B10429F461E083E00E94D900AE
:1012E00043C0F10184918330F9F048F48130B9F0C2
:1012F0008230A1F584B5806284BDC8BC35C087301A
:10130000E9F0883019F1843049F5809180008062DD
:1013100080938000D0928B00C0928A0025C084B553
:10132000806884BDC7BC20C08091800080688093A5
:101330008000D0928900C092880016C08091B000D1
:1013400080688093B000C092B3000EC08091B0005E
:1013500080628093B000C092B40006C0F0E8AF167F
:10136000B1040CF0B9CFB2CF80919101909192016C
:10137000A0919301B091940180938D0190938E017F
:10138000A0938F01B09390010E94BC02EFCD052E77
:1013900097FB1EF400940E94DE0957FD07D00E94BF
:1013A000E60907FC03D04EF40C94DE0950954095F5
:1013B000309521953F4F4F4F5F4F08959095809501
:1013C000709561957F4F8F4F9F4F0895A1E21A2E20
:1013D000AA1BBB1BFD010DC0AA1FBB1FEE1FFF1FD9
:1013E000A217B307E407F50720F0A21BB30BE40B29
:1013F000F50B661F771F881F991F1A9469F7609570
:101400007095809590959B01AC01BD01CF01089529
:10141000A29FB001B39FC001A39F700D811D112435
:10142000911DB29F700D811D1124911D089550587A
:10143000BB27AA270E942F0A0C94A90B0E949B0B82
:1014400038F00E94A20B20F039F49F3F19F426F4E3
:101450000C94980B0EF4E095E7FB0C94920BE92F9B
:101460000E94BA0B58F3BA176207730784079507EF
:1014700020F079F4A6F50C94DC0B0EF4E0950B2E1D
:10148000BA2FA02D0B01B90190010C01CA01A001D6
:101490001124FF27591B99F0593F50F4503E68F131
:1014A0001A16F040A22F232F342F4427585FF3CF72
:1014B000469537952795A795F0405395C9F77EF443
:1014C0001F16BA0B620B730B840BBAF09150A1F08C
:1014D000FF0FBB1F661F771F881FC2F70EC0BA0F12
:1014E000621F731F841F48F4879577956795B7959A
:1014F000F7959E3F08F0B0CF9395880F08F0992795
:10150000EE0F9795879508950E946E0B08F481E081
:1015100008950E949D0A0C94A90B0E94A20B58F0FA
:101520000E949B0B40F029F45F3F29F00C94920B32
:1015300051110C94DD0B0C94980B0E94BA0B68F3BC
:101540009923B1F3552391F3951B550BBB27AA277C
:1015500062177307840738F09F5F5F4F220F331FB6
:10156000441FAA1FA9F335D00E2E3AF0E0E832D07E
:1015700091505040E695001CCAF72BD0FE2F29D081
:10158000660F771F881FBB1F261737074807AB0753
:10159000B0E809F0BB0B802DBF01FF2793585F4FC8
:1015A0003AF09E3F510578F00C94920B0C94DD0BB1
:1015B0005F3FE4F3983ED4F3869577956795B795AA
:1015C000F7959F5FC9F7880F911D9695879597F9B5
:1015D0000895E1E0660F771F881FBB1F621773072E
:1015E0008407BA0720F0621B730B840BBA0BEE1F43
:1015F00088F7E09508950E94020B6894B1110C944D
:10160000DD0B08950E94C20B88F09F5798F0B92F08
:101610009927B751B0F0E1F0660F771F881F991F27
:101620001AF0BA95C9F714C0B13091F00E94DC0BE2
:10163000B1E008950C94DC0B672F782F8827B85FF2
:1016400039F0B93FCCF3869577956795B395D9F77F
:101650003EF490958095709561957F4F8F4F9F4F89
:101660000895E89409C097FB3EF490958095709595
:1016700061957F4F8F4F9F4F9923A9F0F92F96E9DE
:10168000BB279395F695879577956795B795F11153
:10169000F8CFFAF4BB0F11F460FF1BC06F5F7F4FF0
:1016A0008F4F9F4F16C0882311F096E911C0772302
:1016B00021F09EE8872F762F05C0662371F096E80B
:1016C000862F70E060E02AF09A95660F771F881FDA
:1016D000DAF7880F9695879597F90895990F00087E
:1016E000550FAA0BE0E8FEEF16161706E807F907F4
:1016F000C0F012161306E407F50798F0621B730B8F
:10170000840B950B39F40A2661F0232B242B252B0F
:1017100021F408950A2609F4A140A6958FEF811DB2
:10172000811D089597F99F6780E870E060E0089553
:101730009FEF80EC089500240A94161617061806E9
:101740000906089500240A941216130614060506C5
:101750000895092E0394000C11F4882352F0BB0F56
:1017600040F4BF2B11F460FF04C06F5F7F4F8F4FB9
:101770009F4F089557FD9058440F551F59F05F3FF4
:1017800071F04795880F97FB991F61F09F3F79F0A3
:1017900087950895121613061406551FF2CF469525
:1017A000F1DF08C0161617061806991FF1CF8695A7
:1017B0007105610508940895E894BB27662777278B
:1017C000CB0197F908950E946E0B08F48FEF0895EE
:1017D0000E94FB0B0C94A90B0E949B0B38F00E94FB
:1017E000A20B20F0952311F00C94920B0C94980B03
:1017F00011240C94DD0B0E94BA0B70F3959FC1F37A
:10180000950F50E0551F629FF001729FBB27F00DAE
:10181000B11D639FAA27F00DB11DAA1F649F662703
:10182000B00DA11D661F829F2227B00DA11D621F52
:10183000739FB00DA11D621F839FA00D611D221F0C
:10184000749F3327A00D611D231F849F600D211DF0
:10185000822F762F6A2F11249F5750409AF0F1F073
:1018600088234AF0EE0FFF1FBB1F661F771F881FDC
:1018700091505040A9F79E3F510580F00C94920B77
:101880000C94DD0B5F3FE4F3983ED4F38695779597
:101890006795B795F795E7959F5FC1F7FE2B880F82
:1018A000911D9695879597F908950E946E0B880B68
:1018B000990B08950E94080AB7FF0895821B930BA5
:1018C0000895EE0FFF1F0590F491E02D099481E03B
:0C18D00090E0F8940C946C0CF894FFCF9E
:1018DC00000000004D02BA01E4019A021502F30166
:1018EC000702000000001D04BA01240423046E61E9
:1018FC006E00696E66006F7666002A2020544F32A7
:10190C00434F4E54524F4C20202A004C692D496FA6
:10191C006E205057522054455354002A20505245A3
:10192C0053532054484520425554544F4E20544F45
:10193C0020534554205A45524F202A005A45524FA5
:10194C0020000D0A002E0056004100570057680079
:00000001FF
