:100000000C9462000C948A000C948A000C948A0070
:100010000C948A000C948A000C948A000C948A0038
:100020000C948A000C948A000C948A000C948A0028
:100030000C948A000C948A000C948A000C948A0018
:100040000C9497050C948A000C9407060C94E10517
:100050000C948A000C948A000C948A000C948A00F8
:100060000C948A000C948A000000000024002700F1
:100070002A0000000000250028002B0000000000DE
:1000800023002600290004040404040404040202DA
:100090000202020203030303030301020408102007
:1000A0004080010204081020010204081020000012
:1000B0000008000201000003040700000000000027
:1000C0000000390611241FBECFEFD8E0DEBFCDBF40
:1000D00011E0A0E0B1E0ECEEF8E102C005900D9275
:1000E000A038B107D9F722E0A0E8B1E001C01D9225
:1000F000A435B207E1F710E0C2E6D0E004C02197D2
:10010000FE010E94690CC136D107C9F70E9483061F
:100110000C94740C0C940000833081F028F481302E
:1001200099F08230A1F008958730A9F08830B9F0B5
:100130008430D1F4809180008F7D03C08091800055
:100140008F7780938000089584B58F7702C084B53F
:100150008F7D84BD08958091B0008F7703C080911A
:10016000B0008F7D8093B0000895CF93DF93EAEBCA
:10017000F0E08491E6EAF0E0D491E2E9F0E0C491A5
:10018000CC2391F081110E948C00EC2FF0E0EE0F57
:10019000FF1FE458FF4FA591B491EC91ED2381E04E
:1001A00090E021F480E002C080E090E0DF91CF9108
:1001B00008951F93CF93DF93282F30E0F901E25584
:1001C000FF4F8491F901E656FF4FD491F901EA57A8
:1001D000FF4FC491CC23C1F0162F81110E948C00D7
:1001E000EC2FF0E0EE0FFF1FEE58FF4FA591B491FA
:1001F0009FB7F894111104C08C91D095D82302C0F8
:10020000EC91DE2BDC939FBFDF91CF911F9108957E
:10021000CF93DF9390E0FC01E656FF4F2491FC0161
:10022000EA57FF4F8491882361F190E0880F991F6E
:10023000FC01E859FF4FC591D491FC01EE58FF4FE6
:10024000A591B491611109C09FB7F8948881209558
:1002500082238883EC912E230BC0623061F49FB718
:10026000F8948881322F309583238883EC912E2B4C
:100270002C939FBF06C08FB7F894E8812E2B28835C
:100280008FBFDF91CF9108958E3008F08E50877028
:10029000806480937C0080917A00806480937A00EF
:1002A00080917A0086FDFCCF8091780020917900C2
:1002B00090E0922B08953FB7F89480919B01909124
:1002C0009C01A0919D01B0919E0126B5A89B05C0FF
:1002D0002F3F19F00196A11DB11D3FBFBA2FA92FC5
:1002E000982F8827820F911DA11DB11DBC01CD0142
:1002F00042E0660F771F881F991F4A95D1F708952E
:100300008F929F92AF92BF92CF92DF92EF92FF9225
:100310006B017C010E945B014B015C01C114D104A3
:10032000E104F104F1F00E945B01DC01CB018819CA
:100330009909AA09BB09883E9340A105B10570F34C
:1003400021E0C21AD108E108F10888EE880E83E0A6
:10035000981EA11CB11CC114D104E104F10419F7C9
:10036000DDCFFF90EF90DF90CF90BF90AF909F9048
:100370008F900895CF92DF92EF92FF920F931F9389
:10038000CF93DF936C017A018B01C0E0D0E0CE15F2
:10039000DF0581F0D8016D918D01D601ED91FC91C1
:1003A0000190F081E02DC6010995892B11F021966D
:1003B000EECF7E01C701DF91CF911F910F91FF908A
:1003C000EF90DF90CF900895FC01538D448D252F41
:1003D00030E0842F90E0821B930B541710F0CF96DF
:1003E000089501970895FC01918D828D981761F011
:1003F000828DDF01A80FB11D5D968C91928D9F5F5C
:100400009F73928F90E008958FEF9FEF0895FC0106
:10041000918D828D981731F0828DE80FF11D858DB9
:1004200090E008958FEF9FEF0895FC01918D228D4C
:10043000892F90E0805C9F4F821B91098F739927D1
:1004400008958FE991E00E94150221E0892B09F4BB
:1004500020E0822F0895FC01848DDF01A80FB11DDB
:10046000A35ABF4F2C91848D90E001968F739927EA
:10047000848FA689B7892C93A089B1898C918370C8
:1004800080648C93938D848D981306C00288F389C1
:10049000E02D80818F7D80830895EF92FF920F93EE
:1004A0001F93CF93DF93EC0181E0888F9B8D8C8D20
:1004B000981305C0E889F989808185FD26C0F62E4C
:1004C0000B8D10E00F5F1F4F0F731127E02E8C8DE7
:1004D000E8120CC00FB607FCFACFE889F9898081D1
:1004E00085FFF5CFCE010E942B02F1CF8B8DFE014F
:1004F000E80FF11DE35AFF4FF0829FB7F8940B8F7E
:10050000EA89FB89808180620AC09FB7F894EE89EE
:10051000FF896083E889F9898081837080648083A2
:100520009FBF81E090E0DF91CF911F910F91FF90ED
:10053000EF900895CF93DF93EC01888D8823C9F065
:10054000EA89FB89808185FD05C0A889B9898C91DC
:1005500086FD0FC00FB607FCF5CF808185FFF2CF77
:10056000A889B9898C9185FFEDCFCE010E942B021D
:10057000E7CFDF91CF91089580E090E0892B29F0BB
:100580000E94210281110C9400000895CF93DF9303
:10059000EC0160E08E810E94D90061E08E810E94B2
:1005A000D90060E08E810E94D9008BE891E001972C
:1005B000F1F7DF91CF910895CF92DF92EF92FF9202
:1005C0000F931F93CF93DF936C017C0187E0E80EBC
:1005D000F11CC0E0D0E0062F10E0B8010C2E02C0E4
:1005E000759567950A94E2F76170F70181917F0133
:1005F0000E94D9002196C430D10579F7C601DF9158
:10060000CF911F910F91FF90EF90DF90CF900C94BE
:10061000C602CF92DF92EF92FF920F931F93CF9378
:10062000DF93EC01F62E642F8C810E94D9008D811E
:100630008F3F19F060E00E94D9008F850F2D10E0E8
:1006400084FF25C06E0187E0C80ED11CE12CF12C7F
:10065000B8010E2C02C0759567950A94E2F7617097
:10066000F60181916F010E94D900FFEFEF1AFF0A96
:1006700088E0E816F10461F7CE01DF91CF911F9178
:100680000F91FF90EF90DF90CF900C94C602B801CD
:1006900084E0759567958A95E1F7CE010E94DC02AA
:1006A0006F2DCE01DF91CF911F910F91FF90EF90B1
:1006B000DF90CF900C94DC0240E0682F8CE392E056
:1006C0000C94090381E00E945C038BE39FE1019796
:1006D000F1F70895CF93DF93823028F090914B0289
:1006E000986090934B0280934F021092500280E4E6
:1006F0008093510280E18093520280E580935302FF
:1007000061E0809140020E940801809141028F3F88
:1007100019F061E00E94080161E0809142020E94AC
:100720000801CCE3D2E09E012C53324080914B0271
:1007300084FD03C084E090E002C088E090E0219650
:10074000281739072CF461E08E810E940801EBCF55
:100750008BE39DE00197F1F760E0809140020E94F9
:10076000D90060E0809142020E94D900809141024C
:100770008F3F19F060E00E94D90080914B0284FD08
:1007800020C063E08CE392E00E94DC02CBE4D6E47C
:10079000CE010197F1F763E08CE392E00E94DC0266
:1007A0002197F1F763E08CE392E00E94DC0283E59D
:1007B00092E00197F1F762E08CE392E00E94DC02A4
:1007C00015C080620E945C038BE496E40197F1F708
:1007D00080914B0280620E945C0383E592E0019766
:1007E000F1F780914B0280620E945C0380914B0282
:1007F00080620E945C0384E080934C028CE00E9443
:100800005C030E94620382E080934D0286E0DF91E8
:10081000CF910C945C03643008F063E090914F0238
:10082000691710F06FEF690FE62FF0E0E45CFD4F01
:100830009489890F80680C945C0341E00E9409034D
:1008400081E090E00895089580E090E00895CF92CF
:10085000DF92EF92FF920F931F93CF93DF93C4E643
:10086000D0E0C12CD12C76010BE811E08EE00E9483
:100870004401092E000CAA0BBB0BC80ED91EEA1EA0
:10088000FB1EC8010197F1F7219781F7C701B60157
:1008900024E630E040E050E00E94CF09CA01B901EF
:1008A000DF91CF911F910F91FF90EF90DF90CF904C
:1008B00008950E946F0C6115710579F0FB0101909C
:1008C0000020E9F73197AF01461B570BDC01ED9192
:1008D000FC910280F381E02D099480E090E008957E
:1008E0008F929F92AF92BF92EF92FF920F931F93BE
:1008F000CF93DF93CDB7DEB7A1970FB6F894DEBFE5
:100900000FBECDBF7C01FA01CB0119A2223008F441
:100910002AE08E010F5D1F4F822E912CA12CB12C4D
:10092000BF01A50194010E94EE09F901CA0101501D
:1009300011096A3014F4605D01C0695CD8016C93E0
:10094000232B242B252B61F7B801C7010E945B04E0
:10095000A1960FB6F894DEBF0FBECDBFDF91CF9149
:100960001F910F91FF90EF90BF90AF909F908F904D
:1009700008958F929F92AF92BF92CF92DF92EF92A3
:10098000FF920F931F93CF93DF936B017C01142F82
:100990009B01AC010E945D0C882319F06EE171E0AF
:1009A00027C046015701E894B7F82FEF3FEF4FE714
:1009B0005FE7C501B4010E945D0C81110DC02FEFEE
:1009C0003FEF4FE75FE7C501B4010E948C0A18169C
:1009D0001CF462E271E00CC02FEF3FEF4FE75FE4E1
:1009E000C701B6010E94EB0B181694F466E271E0A1
:1009F0008CE392E0DF91CF911F910F91FF90EF90E8
:100A0000DF90CF90BF90AF909F908F900C945B043D
:100A10002FEF3FEF4FE75FECC701B6010E948C0A52
:100A200087FDE4CF20E030E0A901C701B6010E94B4
:100A30008C0A87FF0DC041E06DE28CE392E00E94DA
:100A40000903F7FAF094F7F8F094C1E0D0E002C09F
:100A5000C0E0D0E000E060E070E080E09FE31017CD
:100A600041F020E030E040E251E40E94910A0F5F43
:100A7000F6CFA70196010E94200A6B017C010E941B
:100A80000A0B4B015C012AE0AB01BC018CE392E054
:100A90000E947004C80FD91F1123C9F1C501B40108
:100AA0000E94390B9B01AC01C701B6010E941F0ACD
:100AB0006B017C0141E06EE28CE392E00E9409034D
:100AC000219620E030E040E251E4C701B6010E94E7
:100AD000F00B4B015C010E940A0B6B01E12CF12C25
:100AE0002AE0B701A6018CE392E00E947004C80FCF
:100AF000D91FC701B6010E94390B9B01AC01C5018A
:100B0000B4010E941F0A6B017C011150D1F6CE0185
:100B1000DF91CF911F910F91FF90EF90DF90CF90D9
:100B2000BF90AF909F908F9008950C945B041F929C
:100B30000F920FB60F9211242F933F938F939F9391
:100B4000AF93BF938091970190919801A0919901E3
:100B5000B0919A013091960123E0230F2D3720F4B4
:100B60000196A11DB11D05C026E8230F0296A11D07
:100B7000B11D209396018093970190939801A093C3
:100B80009901B0939A0180919B0190919C01A09151
:100B90009D01B0919E010196A11DB11D80939B0105
:100BA00090939C01A0939D01B0939E01BF91AF9142
:100BB0009F918F913F912F910F900FBE0F901F909B
:100BC00018951F920F920FB60F9211242F933F93F7
:100BD0004F935F936F937F938F939F93AF93BF9345
:100BE000EF93FF938FE991E00E942B02FF91EF9129
:100BF000BF91AF919F918F917F916F915F914F9135
:100C00003F912F910F900FBE0F901F9018951F923C
:100C10000F920FB60F9211242F938F939F93EF9300
:100C2000FF93E091AF01F091B0018081E091B501B7
:100C3000F091B60182FD12C090818091B8018F5F62
:100C40008F732091B901821751F0E091B801F0E063
:100C5000E156FE4F958F8093B80101C08081FF91CE
:100C6000EF919F918F912F910F900FBE0F901F903A
:100C70001895EFE9F1E01382128288EE93E0A0E08C
:100C8000B0E084839583A683B78384E091E0918369
:100C9000808385EC90E09587848784EC90E097874B
:100CA000868780EC90E0918B808B81EC90E0938B39
:100CB000828B82EC90E0958B848B86EC90E0978B16
:100CC000868B118E128E138E148EECE3F2E013825B
:100CD000128286E191E09183808385E0848386E0BF
:100CE000858387E0868388E0878389E080878AE040
:100CF00081878BE082871386148615861686178671
:100D000081E00C946A03789484B5826084BD84B5D4
:100D1000816084BD85B5826085BD85B5816085BDF6
:100D200080916E00816080936E00109281008091AE
:100D30008100826080938100809181008160809336
:100D40008100809180008160809380008091B1005B
:100D500084608093B1008091B00081608093B00086
:100D600080917A00846080937A0080917A0082601A
:100D700080937A0080917A00816080937A008091DC
:100D80007A00806880937A001092C100E091AF01F0
:100D9000F091B00182E08083E091AB01F091AC0171
:100DA0001082E091AD01F091AE0187E68083109250
:100DB000B701E091B301F091B40186E08083E09146
:100DC000B101F091B201808180618083E091B10135
:100DD000F091B201808188608083E091B101F0914F
:100DE000B201808180688083E091B101F091B2010D
:100DF00080818F7D808382E00E946A0362E08CE0C4
:100E00000E94080161E083E00E94080161E083E044
:100E10000E94D90060E080E00E940B046AE271E069
:100E20008CE392E00E94950561E080E00E940B0453
:100E30006BE371E08CE392E00E94950560ED77E052
:100E400080E090E00E9480010E94620360E080E008
:100E50000E940B046BE471E08CE392E00E94950524
:100E600088E10E945C030E94B500892B29F162E3AE
:100E700070E080E090E00E9480010E94B500892B24
:100E8000D9F062E370E080E090E00E9480010E946F
:100E9000B500892B89F062E370E080E090E00E9469
:100EA00080010E94B500892B39F062E370E080E098
:100EB00090E00E948001D4CFC0918001CA30E0F45C
:100EC0000E942704009181011091820120918301E9
:100ED00030918401DC01CB01800F911FA21FB31F51
:100EE0008093810190938201A0938301B093840148
:100EF000CF5FC0938001E0CF60918101709182014A
:100F000080918301909184012AE030E040E050E03C
:100F10000E94EE0920938101309382014093830166
:100F2000509384016CE671E08FE991E00E94950591
:100F300040918101509182016091830170918401FF
:100F40002AE08FE991E00E94700462E771E08FE986
:100F500091E00E945B048FB7F89480909701909085
:100F60009801A0909901B0909A018FBF8092920150
:100F700090929301A0929401B092950180918E017C
:100F800090918F01A0919001B0919101881A990AD6
:100F9000AA0ABB0A80928A0190928B01A0928C01CE
:100FA000B0928D010E94270420918101309182012D
:100FB000621B730B072E000C880B990B0E943B0BD6
:100FC0002AE137E64CE950E40E94F00B20E030E0E3
:100FD00044E852E40E94910A6B017C01C4E6D0E02F
:100FE000412C512C32018FE00E944401092E000C4B
:100FF000AA0BBB0B480E591E6A1E7B1E8BE891E0A4
:101000000197F1F7219779F7C301B20124E630E0A7
:1010100040E050E00E94CF09CA01B9010E943B0B99
:101020002AE038E240EA5BE30E94F00B8B01D82F04
:10103000C92F30908901311009C020E030E048EA22
:1010400051E40E94F00B8B01D82FC92F98014D2F2E
:101050005C2FC701B6010E94F00B2B013C01C501BA
:10106000B4010E943B0B20E030E04AE754E40E94C8
:10107000910AA30192010E94F00B20E030E041E6CA
:1010800055E40E94910A9B01AC0160918501709129
:10109000860180918701909188010E94200A6093C7
:1010A00085017093860180938701909388010E9447
:1010B000620360E080E00E940B04311037C0B80189
:1010C0008D2F9C2F0E940A0B362E70E080E090E05E
:1010D0000E943B0B9B01AC01B8018D2F9C2F0E94FD
:1010E0001F0A4B015C01432D50E060E070E02AE0F4
:1010F0008CE392E00E94700465E771E08CE392E07B
:101100000E94950520E030E040E251E4C501B401C1
:101110000E94F00B0E940A0B462F50E060E070E046
:101120002AE08CE392E00E94700406C042E0B8011D
:101130008D2F9C2F0E94B90467E771E08CE392E049
:101140000E94950561E080E00E940B0420E030E001
:10115000A901C701B6010E94EB0B181624F0C701C4
:10116000B601905802C0C701B60142E00E94B9041E
:1011700069E771E08CE392E00E949505C301B2013A
:101180000E94030B6B017C01C301B2010E940A0B98
:1011900070E080E090E00E943B0B9B01AC01C3013A
:1011A000B2010E941F0A20E030E040E251E40E94B8
:1011B000F00B0E940A0BC62F60E089E00E940B042E
:1011C0000D2C000CEE08FF08F7FE0FC041E06DE2A9
:1011D0008CE392E00E94090344275527BA014C1979
:1011E0005D096E097F092AE003C02AE0B701A60164
:1011F0008CE392E00E94700465E771E08CE392E07A
:101200000E9495054C2F50E060E070E02AE08CE3EE
:1012100092E00E9470046BE771E08CE392E00E9420
:10122000950561E089E00E940B0460918501709151
:101230008601809187019091880142E00E94B90463
:101240006DE771E08CE392E00E94950581E10E94D8
:1012500044012FEF30E0DC010E94620C2FEF33E0FD
:1012600040E050E00E94CF0969017A01E90157FF8F
:101270000EC06DE28FE991E00E944D024427552790
:10128000BA014C195D096E097F092AE003C02AE002
:10129000B701A6018FE991E00E94700462E771E056
:1012A0008FE991E00E945B0468EC70E080E090E0E0
:1012B0000E94800161E083E00E940801209711F400
:1012C00060E004C0CF3FD10529F461E083E00E94D3
:1012D000D90043C0E1EBF0E084918330F9F048F4A9
:1012E0008130B9F08230A1F584B5806284BDC8BC7C
:1012F00034C08730E9F0883019F1843049F58091A5
:101300008000806280938000D0928B00C0928A001F
:1013100024C084B5806884BDC7BC1FC08091800094
:10132000806880938000D0928900C092880015C0A8
:101330008091B00080688093B000C092B3000DC06F
:101340008091B00080628093B000C092B40005C06C
:10135000C038D1050CF0B9CFB3CF809192019091F4
:101360009301A0919401B091950180938E01909387
:101370008F01A0939001B09391010E94B500892B39
:1013800019F00E94BC02E7CD9091890181E0892784
:10139000809389010E94B500892BE1F3F2CF052EDD
:1013A00097FB1EF400940E94E60957FD07D00E94A7
:1013B000EE0907FC03D04EF40C94E60950954095D5
:1013C000309521953F4F4F4F5F4F089590958095F1
:1013D000709561957F4F8F4F9F4F0895A1E21A2E10
:1013E000AA1BBB1BFD010DC0AA1FBB1FEE1FFF1FC9
:1013F000A217B307E407F50720F0A21BB30BE40B19
:10140000F50B661F771F881F991F1A9469F760955F
:101410007095809590959B01AC01BD01CF01089519
:10142000A29FB001B39FC001A39F700D811D112425
:10143000911DB29F700D811D1124911D089550586A
:10144000BB27AA270E94370A0C94B10B0E94A30B5A
:1014500038F00E94AA0B20F039F49F3F19F426F4CB
:101460000C94A00B0EF4E095E7FB0C949A0BE92F7B
:101470000E94C20B58F3BA176207730784079507D7
:1014800020F079F4A6F50C94E40B0EF4E0950B2E05
:10149000BA2FA02D0B01B90190010C01CA01A001C6
:1014A0001124FF27591B99F0593F50F4503E68F121
:1014B0001A16F040A22F232F342F4427585FF3CF62
:1014C000469537952795A795F0405395C9F77EF433
:1014D0001F16BA0B620B730B840BBAF09150A1F07C
:1014E000FF0FBB1F661F771F881FC2F70EC0BA0F02
:1014F000621F731F841F48F4879577956795B7958A
:10150000F7959E3F08F0B0CF9395880F08F0992784
:10151000EE0F9795879508950E94760B08F481E069
:1015200008950E94A50A0C94B10B0E94AA0B58F0D2
:101530000E94A30B40F029F45F3F29F00C949A0B12
:1015400051110C94E50B0C94A00B0E94C20B68F394
:101550009923B1F3552391F3951B550BBB27AA276C
:1015600062177307840738F09F5F5F4F220F331FA6
:10157000441FAA1FA9F335D00E2E3AF0E0E832D06E
:1015800091505040E695001CCAF72BD0FE2F29D071
:10159000660F771F881FBB1F261737074807AB0743
:1015A000B0E809F0BB0B802DBF01FF2793585F4FB8
:1015B0003AF09E3F510578F00C949A0B0C94E50B91
:1015C0005F3FE4F3983ED4F3869577956795B7959A
:1015D000F7959F5FC9F7880F911D9695879597F9A5
:1015E0000895E1E0660F771F881FBB1F621773071E
:1015F0008407BA0720F0621B730B840BBA0BEE1F33
:1016000088F7E09508950E940A0B6894B1110C9434
:10161000E50B08950E94CA0B88F09F5798F0B92FE8
:101620009927B751B0F0E1F0660F771F881F991F17
:101630001AF0BA95C9F714C0B13091F00E94E40BCA
:10164000B1E008950C94E40B672F782F8827B85FDA
:1016500039F0B93FCCF3869577956795B395D9F76F
:101660003EF490958095709561957F4F8F4F9F4F79
:101670000895E89409C097FB3EF490958095709585
:1016800061957F4F8F4F9F4F9923A9F0F92F96E9CE
:10169000BB279395F695879577956795B795F11143
:1016A000F8CFFAF4BB0F11F460FF1BC06F5F7F4FE0
:1016B0008F4F9F4F16C0882311F096E911C07723F2
:1016C00021F09EE8872F762F05C0662371F096E8FB
:1016D000862F70E060E02AF09A95660F771F881FCA
:1016E000DAF7880F9695879597F90895990F00086E
:1016F000550FAA0BE0E8FEEF16161706E807F907E4
:10170000C0F012161306E407F50798F0621B730B7E
:10171000840B950B39F40A2661F0232B242B252BFF
:1017200021F408950A2609F4A140A6958FEF811DA2
:10173000811D089597F99F6780E870E060E0089543
:101740009FEF80EC089500240A94161617061806D9
:101750000906089500240A941216130614060506B5
:101760000895092E0394000C11F4882352F0BB0F46
:1017700040F4BF2B11F460FF04C06F5F7F4F8F4FA9
:101780009F4F089557FD9058440F551F59F05F3FE4
:1017900071F04795880F97FB991F61F09F3F79F093
:1017A00087950895121613061406551FF2CF469515
:1017B000F1DF08C0161617061806991FF1CF869597
:1017C0007105610508940895E894BB27662777277B
:1017D000CB0197F908950E94760B08F48FEF0895D6
:1017E0000E94030C0C94B10B0E94A30B38F00E94D2
:1017F000AA0B20F0952311F00C949A0B0C94A00BDB
:1018000011240C94E50B0E94C20B70F3959FC1F359
:10181000950F50E0551F629FF001729FBB27F00D9E
:10182000B11D639FAA27F00DB11DAA1F649F6627F3
:10183000B00DA11D661F829F2227B00DA11D621F42
:10184000739FB00DA11D621F839FA00D611D221FFC
:10185000749F3327A00D611D231F849F600D211DE0
:10186000822F762F6A2F11249F5750409AF0F1F063
:1018700088234AF0EE0FFF1FBB1F661F771F881FCC
:1018800091505040A9F79E3F510580F00C949A0B5F
:101890000C94E50B5F3FE4F3983ED4F3869577957F
:1018A0006795B795F795E7959F5FC1F7FE2B880F72
:1018B000911D9695879597F908950E94760B880B50
:1018C000990B08950E94100AB7FF0895821B930B8D
:1018D0000895EE0FFF1F0590F491E02D099481E02B
:0C18E00090E0F8940C94740CF894FFCF86
:1018EC00000000004D02BA01E4019A021502F30156
:1018FC000702000000001D04BA01240423046E61D9
:10190C006E00696E66006F7666002A2020544F3296
:10191C00434F4E54524F4C20202A004C692D496F96
:10192C006E205057522054455354002A2050524593
:10193C0053532054484520425554544F4E20544F35
:10194C0020534554205A45524F202A005A45524F95
:10195C0020000D0A002E0056004100570057680069
:00000001FF
